:020000040800F2
:10000000C8040020C10100089512000891120008E0
:1000100093120008CD02000811140008000000002F
:10002000000000000000000000000000991200081D
:10003000E503000800000000971200089B1200086A
:10004000DB010008DB010008DB010008DB01000820
:10005000DB010008DB010008DB010008DB01000810
:10006000DB010008DB010008DB010008DB01000800
:10007000DB010008DB010008DB010008DB010008F0
:1000800035030008DB010008DB010008DB01000884
:10009000DB010008DB010008DB010008DB010008D0
:1000A000DB010008DB010008DB010008DB010008C0
:1000B000DB010008DB010008DB010008DB010008B0
:1000C000DB010008DB010008DB010008DB010008A0
:1000D000DB010008DB010008DB010008DB01000890
:1000E000DB010008DB010008DB010008DB01000880
:1000F000DB010008DB010008DB010008DB01000870
:10010000DB010008DB010008DB010008DB0100085F
:10011000DB010008DB010008DB010008DB0100084F
:10012000DB010008DB010008DB010008DB0100083F
:10013000DB010008DB010008DB010008DB0100082F
:10014000DB010008DB010008DB010008DB0100081F
:10015000DB010008DB010008DB010008DB0100080F
:10016000DB010008DB010008DB010008DB010008FF
:10017000DB010008DB010008DB01000800000000D3
:10018000DB010008DB010008DB010008DB010008DF
:10019000DB010008DB010008DB010008DB010008CF
:1001A000DB010008DB010008DB010008DFF80CD0F0
:1001B00000F07AF80048004751140008C8040020F5
:1001C0000648804706480047FEE7FEE7FEE7FEE7F1
:1001D000FEE7FEE7FEE7FEE7FEE7FEE72D13000879
:1001E000AD0100082DE9F05F0546002092469B46D0
:1001F00088460646814640241BE02846414647463D
:10020000224600F041F853465A46C01A914110D395
:1002100011461846224600F028F82D1A67EB01080F
:100220004F4622460120002100F01FF817EB00097D
:100230004E41201EA4F10104DFDC484631462A4627
:100240004346BDE8F09FD2B201E000F8012B491E01
:10025000FBD270470022F6E710B513460A46044663
:100260001946FFF7F0FF204610BD202A04DB203A94
:1002700000FA02F1002070479140C2F1200320FAF9
:1002800003F3194390407047202A04DB203A21FAF7
:1002900002F00021704721FA02F3D040C2F120029F
:1002A0009140084319467047064C074D06E0E06848
:1002B00040F0010394E8070098471034AC42F6D3AD
:1002C000FFF778FF3016000850160008FEE710B55B
:1002D000846B204600F0ACF80120207110BD10B5F1
:1002E000846B204600F080F80120207110BD10B50D
:1002F000846B206940F004002061204600F09AF8E9
:100300000120207110BD10B5846B206940F00400FD
:100310002061204600F06AF80120207110BD10B560
:10032000806B00F086F810BD10B5806B00F05DF8B2
:1003300010BD0000014800F061B900006400002019
:1003400001681823CAB2103AB2FBF3F2054B6FF3FF
:100350000901032A9B5CC36500D9091D8165084614
:10036000704700001816000810B5014600208B6980
:100370008A6A4FF0C07453B1B3F5005F15D072B103
:10038000012A0CD0022A0AD0032A09D104E01AB1AA
:10039000012A06D0022A03D1C96AC90100D5012069
:1003A00010BDC96AA142FAD010BD002AF7D0012AB7
:1003B000F2D0022AF3D0032AF3D010BD30B504687E
:1003C000256825F480252560046863608368402BD8
:1003D000036803D099600068C26030BD9A6000680D
:1003E000C16030BD7047704770477047704770B547
:1003F0004379012B1AD00126467102230371056847
:100400002C6840F6FE7393409C43D1E900310B43C6
:10041000934023432B6001680B68C0249440A3439E
:100420000B60067100214171084670BD022070BD4D
:1004300070477047704770B5040003D020790025DD
:1004400010B105E0012070BD6571204600F008F88C
:1004500002202071256101202071002070BD000064
:1004600070B586B0064614216846FFF7F3FE1E49B4
:100470003068884235D11D480025016841F000519F
:100480000160006800F000500590184810380168BD
:1004900041F0010101600068694600F0010005902B
:1004A000102000900320CDE90105114800F018FA52
:1004B000114C104820604FF0606060604020C4E93B
:1004C00002050001C4E904058010C4E90650256254
:1004D0002046656200F062F908B1FFF784FFB4605E
:1004E000A66306B070BD00000074004040380240B2
:1004F0000000024088600240640000202DE9F041C5
:1005000004460D461746617900220698012920D03D
:100510000126667102212171F5B1D4F80CC0314970
:10052000CCF83C10D4F80CC02F49CCF84010D4F8CB
:100530000CC02E49CCF84C102168D1F800C04CF00A
:10054000805CC1F800C090B3042834D0082837D1AB
:1005500034E00220BDE8F081D4F808C02449CCF88A
:100560003C10D4F808C02349CCF84010D4F808C097
:100570002149CCF84C102168D1F800C04CF4805CC3
:10058000C1F800C020B1042805D0082808D105E032
:100590002268083204E022680C3201E0226810323E
:1005A0002068016841F400510160A0680EE0FFE797
:1005B0002268143204E02268183201E022681C32FA
:1005C0002068016841F000510160E068394600F0A0
:1005D0004FF920680168AE4031430160002060712E
:1005E000B8E70000DF02000829030008070300083D
:1005F000CF0200081F030008EF0200082DE9F843AE
:1006000004464FF00009CDF8009063484FF41651AE
:10061000A56D0068B0FBF1F72E6894F85C10082017
:1006200000FA01F131420FD021680A6852070BD558
:100630000A6822F004020A6094F85C108840A860FE
:10064000606D40F00100606594F85C104FF00108A7
:1006500008FA01F0304208D021684969090604D53A
:10066000A860606D40F00200606594F85C100420A2
:100670008840304208D021680968890704D5A860FD
:10068000606D40F00400606594F85C1010208840B4
:10069000304218D021680968090714D5A86020687D
:1006A0000168490304D50068000308D5A16C07E080
:1006B0000168C90503D4016821F008010160216CBB
:1006C00009B12046884794F85C10202088403042C9
:1006D00031D021680968C9062DD5A86094F8350085
:1006E00005282068016806D0490347D50068000343
:1006F0001DD4616C1CE021F0160101602068416985
:1007000021F080014161206C08B9A06C20B1206803
:10071000016821F00801016094F85C103F208840D6
:10072000A86084F8349084F83580216D1FE0E16B77
:1007300009B120468847606D00282BD0606DC00746
:1007400014D0052084F835002068016821F00101EB
:1007500001600098401C0090B84203D820680068EF
:10076000C007F6D184F8349084F83580E16C002914
:1007700010D001B02046BDE8F04308470168C90524
:10078000D5D4016821F01001016084F8349084F818
:100790003580CCE7BDE8F8830C0000202DE9F0415E
:1007A000044600F087F906465CB1002584F8345011
:1007B000022084F835002068016821F00101016001
:1007C0000DE00120BDE8F08100F074F9801B0528E0
:1007D00005D920206065032084F83500F2E7206801
:1007E0000068C007F0D12268116820480140D4E9B0
:1007F00001031843D4E903363343184363691843AC
:10080000A3691843E3691843236A18430843616ADC
:10081000042903D1D4E90B1319430843106020685D
:100820004069666A20F0070130460E43012704281C
:100830000CD1A06A0643E06A40B12046FFF794FD60
:1008400020B14020606584F83570BAE720684661C1
:100850002046FFF775FD94F85C203F2191408160B0
:10086000656584F835700020ACE700003F8010F02B
:100870002DE9F0410446866D90F8340000250128EA
:100880000DD0012084F8340094F835700020012F39
:1008900007D084F8340002252846BDE8F081022004
:1008A000FBE7022784F8357060652046FFF786FD78
:1008B00094F85C103F208840B0602068016841F0E7
:1008C00016010160206C20B12068016841F0080128
:1008D00001602068016841F001010160DCE700006F
:1008E0002DE9F84F00224FF0010803254FF00F0EBD
:1008F0000B6808FA02F42340A3426ED14E68012E21
:1009000005D0022E03D0112E01D0122E12D18668EE
:100910004FEA420C05FA0CF7BE43CF6807FA0CF712
:10092000374387604668A6430C79C4F300149440AB
:1009300034434460C668570005FA07FC8C6826EA11
:100940000C06BC403443C4604C68022C01D0122C0D
:1009500013D1D40800EB8404A346D4F820905407A4
:100960004FEAD46A0EFA0AF629EA06090E6906FA6F
:100970000AF646EA0906CBF8206004680E7924EAF4
:100980000C0406F00306BE40264306604C68E400F3
:100990006FD53B4C266846F480462660246822F0DA
:1009A000030604F480440094364C3444A446D4F83E
:1009B00008489607360F0EFA06F7BC43324FB84286
:1009C00001D100272EE0314FB84201D1012729E0A3
:1009D0002F4FB84202D1022724E04AE02D4FB842FF
:1009E00001D103271EE02C4FB84201D1042719E0A2
:1009F0002A4FB84201D1052714E0294FB84201D14E
:100A000006270FE0274FB84201D107270AE0264FFB
:100A1000B84201D1082705E0244FB84201D1092787
:100A200000E00A27B7402743CCF80878204E346806
:100A30004F689C43FF0300D51C4334601C4E361D99
:100A400034684F689C43BF0300D51C433460184E84
:100A5000083634684F689C43FF0200D51C4334605D
:100A6000134E0C3634684F689C43BF0200D51C43BC
:100A70003460521C102AFFF43BAFBDE8F88F000031
:100A800044380240003001400000024000040240AF
:100A900000080240000C0240001002400014024016
:100AA00000180240001C02400020024000240240C6
:100AB000003C0140014880687047000000000020B1
:100AC000024881680278114481607047000000206C
:100AD0000B4810B5016841F400710160016841F4F0
:100AE00080610160016841F480710160032000F0C1
:100AF0006FF8002000F006F800F024F8002010BD88
:100B0000003C024070B50D4D04464FF47A712878D0
:100B1000B1FBF0F00A490968B1FBF0F000F01AFBF4
:100B200048B9102C07D200222146501E00F030F8A0
:100B300000206C6070BD012070BD0000000000202E
:100B40000C0000200A4808B5016841F480410160AA
:100B5000006800F4804000900548001F016841F0E3
:100B600080510160006800F08050009008BD0000D6
:100B700044380240002809DB00F01F0201219140A7
:100B80004009800000F1E020C0F80011704700002B
:100B9000F0B40E4B1B680C46C3F30223C3F10705E8
:100BA000042D00D90425191D072901D2002300E0D6
:100BB000DB1E012606FA05F1491E214099409E40A0
:100BC000761E16403143F0BC00F023BC0CED00E073
:100BD000064900F0070208684FF6FF03184040EA94
:100BE0000220034A10430860704700000CED00E04B
:100BF0000000FA052DE9F8431748016841F08051DB
:100C000001600068154F00F08050012600903E649E
:100C1000FFF750FF05464FF47A78114C05E000BF0E
:100C2000FFF748FF401B40450DD86068C003F7D56B
:100C30007E64FFF73FFF0546464607E0FFF73AFFB1
:100C4000401BB04202D90320BDE8F88360688003EE
:100C5000F4D50020F8E700004038024000000E42C2
:100C6000007000402DE9F0470E46050065D0DFF822
:100C70001481D8F80000F7B200F00F00B04207D29C
:100C800088F80070D8F8000000F00F00B04254D18E
:100C900028683D4C810712D5400703D5206840F4F1
:100CA000E05020602878000703D5206840F46040B9
:100CB00020602068A96820F0F000084320602878B0
:100CC000C0072DD0304968680839012812D00228A1
:100CD00013D0032811D00968890700292DDA21686B
:100CE00021F0030101432160FFF7E4FE814641F258
:100CF000883A0EE009688903EFE709688901ECE7A3
:100D0000FFF7D8FEA0EB0901514502D90320BDE849
:100D1000F0872068696800F00C00B0EB810FEFD11C
:100D2000D8F80010404601F00F01B14207D9077012
:100D3000006800F00F00B04201D00120E7E72878FA
:100D4000400705D52068E96820F4E050084320609A
:100D50002878000706D52068296920F4604040EA19
:100D6000C100206000F018F82168084AC1F303119F
:100D7000515CC8400649086006480068FFF7C2FE9B
:100D80000020C4E7003C024008380240201600085A
:100D90000C00002004000020154810B5006810F079
:100DA0000C02144813D04110042A0FD0082A0ED187
:100DB0000F4C241F2268236802F03F025B0207D514
:100DC0002068C0F38810A0FB010106E0084610BDB2
:100DD0002168C1F38811A1FB00010023FFF702FA8B
:100DE0002168C1F30141491C4900B0FBF1F010BD7D
:100DF000083802400024F4002DE9F84F040076D0B2
:100E00002078DFF838A3CE4DC00749D0DAF80010BB
:100E10005046C1F38101012908D00068C0F3810068
:100E200002280AD1281D0068400206D528688003E0
:100E300036D560680028E2D032E06068B0F5803FC7
:100E400010D0B0F5A02F286810D020F48030286092
:100E5000286820F4802028606068A0B1FFF72AFE8F
:100E600006460CE0286840F48030F4E740F4802027
:100E70002860F7E7FFF71EFE801B642873D82868F8
:100E80008003F7D50CE0FFF715FE064605E000BF2E
:100E9000FFF710FE801B6428F0D828688003F7D481
:100EA0002078DFF8A08280074FF000093ED5DAF8FD
:100EB0000010504611F00C0F09D00068C0F38100FB
:100EC00002280BD19D48001F0068400206D4286804
:100ED000800715D5E068012809D111E0E068B8B1B4
:100EE0000120C8F80000FFF7E5FD064605E020E117
:100EF000FFF7E0FD801B0228C0D828688007F7D5DF
:100F00002868216920F0F80040EAC10028600DE05F
:100F1000C8F80090FFF7CEFD064604E0FFF7CAFDD3
:100F2000801B02281FD828688007F7D42078000784
:100F300022D5824E844861696C3671B1012101600D
:100F4000FFF7B8FD074604E0FFF7B4FDC01B022819
:100F500009D830688007F7D50EE0C0F80090FFF799
:100F6000A9FD074605E082E0FFF7A4FDC01B0228AB
:100F70007DD830688007F7D42078400768D5DFF83F
:100F8000BCB100270BF1380BDBF80000C0000BD41C
:100F9000DBF8001041F08051CBF80010DBF80000C6
:100FA000012700F080500090684E3068C00510D4D2
:100FB000306840F480703060FFF77CFD009005E001
:100FC000FFF778FD0099401A022850D83068C00514
:100FD000F6D55A4EA068683601280FD0052830682B
:100FE00010D020F001003060306820F00400306044
:100FF000A068B8B1FFF75EFD00900FE0306840F0E8
:101000000100F4E740F004003060F7E7FFF752FD1D
:101010000099411A41F28830814266D830688007D1
:10102000F4D50EE0FFF746FD009007E0FFF742FD24
:101030000099411A41F28830814256D830688007C1
:10104000F4D42FB1DBF8001021F08051CBF8001060
:10105000A069D0B3DAF800205146C2F38102022A17
:101060004AD00228484607D0C8F8600000E03CE0BB
:10107000FFF720FD04463BE04746C8F86000FFF755
:1010800019FD064605E000BFFFF714FD801B02288E
:101090002BD828688001F7D4D4E907010843A16A56
:1010A0002B4A490802EB0141626A41EA8211084376
:1010B00094F82C1040EA01612048001F01600120D3
:1010C0003866FFF7F7FC044605E034E0FFF7F2FC72
:1010D000001B022809D828688001F7D52BE000BF43
:1010E000FFF7E8FC001B022802D90320BDE8F88FB7
:1010F00028688001F4D41EE00128F7D00868E2696E
:1011000000F48001914214D1226A00F03F01914223
:101110000FD147F6C071626A0140914209D1A26ABB
:1011200000F44031914204D1E16A00F070608842DD
:1011300001D00120DAE70020D8E70000083802409B
:101140000038024000004742800E474200700040D5
:101150000000FFFF10B5401EB0F1807F01D30120D9
:1011600010BD4FF0E02460610F21601700F051F9CD
:101170000020A06107202061002010BD70B590F80C
:101180003C20012A32D0012480F83C40022280F821
:101190003D2003685A689D6822F070060A68324351
:1011A0005A60134B02689A4214D0B2F1804F11D0AA
:1011B000104B9A420ED0104B9A420BD00F4B9A42D2
:1011C00008D00F4B9A4205D00E4B9A4202D00E4BDC
:1011D0009A4204D1496825F080031943916080F850
:1011E0003D40002180F83C10084670BD022070BDD3
:1011F000000001400004004000080040000C0040D6
:1012000000040140004001400018004010B50400F7
:1012100003D094F83D0010B107E0012010BD00207C
:1012200084F83C00204600F00DF8022084F83D00D0
:10123000211D206800F088F8012084F83D0000207E
:1012400010BD000008B500680649884208D106486C
:10125000016841F010010160006800F0100000908A
:1012600008BD00000010004040380240022180F814
:101270003D1001688A6802F00702062A03D00A6856
:1012800042F001020A60012180F83D100020704701
:10129000FEE7FEE7704770477047FFF711BC00009C
:1012A00030B593B030216846FEF7D4FF14210CA866
:1012B000FEF7D0FF1B480025016841F08051016016
:1012C000006800F0805011901748016841F44041D7
:1012D00001600068022400F4404011900120009059
:1012E000000401908001CDE90640082008904FF4E9
:1012F000B470CDE9090404200B906846FFF77CFD2B
:10130000FFF778FC0CA90F2081E831004FF4A050C2
:101310000F90E002109005210CA8FFF7A3FC13B07A
:1013200030BD0000403802400070004005480168B0
:1013300041F47001016003494FF00060803908609A
:101340007047000088ED00E0F0B50268254C264D9E
:10135000264E274F274B4FF0804CA04209D06045C6
:1013600007D0A84205D0B04203D0B84201D098427D
:1013700004D122F0700E4A6842EA0E02A0421BD04D
:10138000604519D0A84217D0B04215D0B84213D04A
:10139000984211D0184DA8420ED0184DA8420BD03B
:1013A000174DA84208D0174DA84205D0164DA842A7
:1013B00002D0164DA84203D122F44075CA682A43D0
:1013C0004D6922F080022A4302608A68C2620A687C
:1013D0008262A04201D0984201D1096901630121D2
:1013E0004161F0BD000001400004004000080040E1
:1013F000000C004000040140004001400044014056
:101400000048014000180040001C0040002000403F
:10141000FEE70907090E002804DB00F1E02080F850
:101420000014704700F00F0000F1E02080F8141D58
:10143000704702E008C8121F08C1002AFAD170479D
:101440007047002001E001C1121F002AFBD1704744
:101450001CB5FFF73DFBFFF723FF2A480024016876
:1014600041F080010160016801F080010091016894
:1014700041F001010160016801F001010091016882
:1014800041F4001101600068002200F40010009097
:1014900011461020FFF77CFB1020FFF76BFB1B4968
:1014A00000941948019408600846FEF7C4FF042020
:1014B000CDE90004002269461448FEF798FF13485E
:1014C0000094143012490194C0E900146321C0E96A
:1014D000024180218161FFF799FE2020CDE90004BF
:1014E0000A4869461430FFF749FE08481430FFF7F0
:1014F000BDFE082043010090064A00210348FEF784
:10150000FDFFFEE73038024000740040100000206C
:1015100000100040181500088084878A8D909396EB
:10152000999DA0A3A6A9ACAFB1B4B7BABDC0C2C5BE
:10153000C8CACDCFD2D4D6D9DBDDDFE1E3E5E7E918
:10154000EBEDEEF0F1F3F4F6F7F8F9FAFBFCFDFD44
:10155000FEFFFFFFFFFFFFFFFFFFFFFFFFFFFFFF9C
:10156000FEFDFDFCFBFAF9F8F7F6F4F3F1F0EEED11
:10157000EBE9E7E5E3E1DFDDDBD9D6D4D2CFCDCAB5
:10158000C8C5C2C0BDBAB7B4B1AFACA9A6A3A09D2F
:10159000999693908D8A8784817D7A7774716E6B2A
:1015A0006864615E5B585552504D4A4744413F3C28
:1015B000393734322F2D2B28262422201E1C1A18AE
:1015C00016141311100E0D0B0A0908070605040462
:1015D00003020201010101010101010101010202F5
:1015E00003040405060708090A0B0D0E1011131455
:1015F00016181A1C1E20222426282B2D2F32343791
:10160000393C3F4144474A4D505255585B5E6164F6
:10161000686B6E7174777A7D0006101600061016DE
:101620000000000000000000010203040607080992
:1016300050160008000000201000000032140008BE
:101640006016000810000020B804000042140008D2
:101650000100000010000000000000000024F40061
:04000005080001AD41
:00000001FF
